{
  "contractName": "GradientCoin",
  "abi": [
    {
      "constant": true,
      "inputs": [],
      "name": "name",
      "outputs": [
        {
          "name": "",
          "type": "string"
        }
      ],
      "payable": false,
      "stateMutability": "view",
      "type": "function"
    },
    {
      "constant": true,
      "inputs": [
        {
          "name": "",
          "type": "uint256"
        }
      ],
      "name": "tokenIndexToOwner",
      "outputs": [
        {
          "name": "",
          "type": "address"
        }
      ],
      "payable": false,
      "stateMutability": "view",
      "type": "function"
    },
    {
      "constant": true,
      "inputs": [],
      "name": "symbol",
      "outputs": [
        {
          "name": "",
          "type": "string"
        }
      ],
      "payable": false,
      "stateMutability": "view",
      "type": "function"
    },
    {
      "constant": true,
      "inputs": [
        {
          "name": "",
          "type": "uint256"
        }
      ],
      "name": "gradients",
      "outputs": [
        {
          "name": "outer",
          "type": "string"
        },
        {
          "name": "inner",
          "type": "string"
        }
      ],
      "payable": false,
      "stateMutability": "view",
      "type": "function"
    },
    {
      "constant": true,
      "inputs": [
        {
          "name": "",
          "type": "uint256"
        }
      ],
      "name": "tokenIndexToApproved",
      "outputs": [
        {
          "name": "",
          "type": "address"
        }
      ],
      "payable": false,
      "stateMutability": "view",
      "type": "function"
    },
    {
      "constant": true,
      "inputs": [],
      "name": "contractOwner",
      "outputs": [
        {
          "name": "",
          "type": "address"
        }
      ],
      "payable": false,
      "stateMutability": "view",
      "type": "function"
    },
    {
      "constant": true,
      "inputs": [
        {
          "name": "",
          "type": "address"
        }
      ],
      "name": "ownershipTokenCount",
      "outputs": [
        {
          "name": "",
          "type": "uint256"
        }
      ],
      "payable": false,
      "stateMutability": "view",
      "type": "function"
    },
    {
      "inputs": [],
      "payable": false,
      "stateMutability": "nonpayable",
      "type": "constructor"
    },
    {
      "anonymous": false,
      "inputs": [
        {
          "indexed": false,
          "name": "owner",
          "type": "address"
        },
        {
          "indexed": false,
          "name": "tokenId",
          "type": "uint256"
        }
      ],
      "name": "Mint",
      "type": "event"
    },
    {
      "anonymous": false,
      "inputs": [
        {
          "indexed": false,
          "name": "from",
          "type": "address"
        },
        {
          "indexed": false,
          "name": "to",
          "type": "address"
        },
        {
          "indexed": false,
          "name": "tokenId",
          "type": "uint256"
        }
      ],
      "name": "Transfer",
      "type": "event"
    },
    {
      "anonymous": false,
      "inputs": [
        {
          "indexed": false,
          "name": "owner",
          "type": "address"
        },
        {
          "indexed": false,
          "name": "approved",
          "type": "address"
        },
        {
          "indexed": false,
          "name": "tokenId",
          "type": "uint256"
        }
      ],
      "name": "Approval",
      "type": "event"
    },
    {
      "constant": true,
      "inputs": [
        {
          "name": "_interfaceID",
          "type": "bytes4"
        }
      ],
      "name": "supportsInterface",
      "outputs": [
        {
          "name": "",
          "type": "bool"
        }
      ],
      "payable": false,
      "stateMutability": "view",
      "type": "function"
    },
    {
      "constant": true,
      "inputs": [],
      "name": "totalSupply",
      "outputs": [
        {
          "name": "",
          "type": "uint256"
        }
      ],
      "payable": false,
      "stateMutability": "view",
      "type": "function"
    },
    {
      "constant": true,
      "inputs": [
        {
          "name": "_owner",
          "type": "address"
        }
      ],
      "name": "balanceOf",
      "outputs": [
        {
          "name": "",
          "type": "uint256"
        }
      ],
      "payable": false,
      "stateMutability": "view",
      "type": "function"
    },
    {
      "constant": true,
      "inputs": [
        {
          "name": "_tokenId",
          "type": "uint256"
        }
      ],
      "name": "ownerOf",
      "outputs": [
        {
          "name": "owner",
          "type": "address"
        }
      ],
      "payable": false,
      "stateMutability": "view",
      "type": "function"
    },
    {
      "constant": false,
      "inputs": [
        {
          "name": "_to",
          "type": "address"
        },
        {
          "name": "_tokenId",
          "type": "uint256"
        }
      ],
      "name": "approve",
      "outputs": [],
      "payable": false,
      "stateMutability": "nonpayable",
      "type": "function"
    },
    {
      "constant": false,
      "inputs": [
        {
          "name": "_to",
          "type": "address"
        },
        {
          "name": "_tokenId",
          "type": "uint256"
        }
      ],
      "name": "transfer",
      "outputs": [],
      "payable": false,
      "stateMutability": "nonpayable",
      "type": "function"
    },
    {
      "constant": false,
      "inputs": [
        {
          "name": "_from",
          "type": "address"
        },
        {
          "name": "_to",
          "type": "address"
        },
        {
          "name": "_tokenId",
          "type": "uint256"
        }
      ],
      "name": "transferFrom",
      "outputs": [],
      "payable": false,
      "stateMutability": "nonpayable",
      "type": "function"
    },
    {
      "constant": true,
      "inputs": [
        {
          "name": "_owner",
          "type": "address"
        }
      ],
      "name": "tokensOfOwner",
      "outputs": [
        {
          "name": "",
          "type": "uint256[]"
        }
      ],
      "payable": false,
      "stateMutability": "view",
      "type": "function"
    },
    {
      "constant": false,
      "inputs": [
        {
          "name": "_outer",
          "type": "string"
        },
        {
          "name": "_inner",
          "type": "string"
        }
      ],
      "name": "mint",
      "outputs": [
        {
          "name": "",
          "type": "uint256"
        }
      ],
      "payable": false,
      "stateMutability": "nonpayable",
      "type": "function"
    },
    {
      "constant": true,
      "inputs": [
        {
          "name": "_tokenId",
          "type": "uint256"
        }
      ],
      "name": "getToken",
      "outputs": [
        {
          "name": "outer",
          "type": "string"
        },
        {
          "name": "inner",
          "type": "string"
        }
      ],
      "payable": false,
      "stateMutability": "view",
      "type": "function"
    }
  ],
  "bytecode": "0x608060405234801561001057600080fd5b50336000806101000a81548173ffffffffffffffffffffffffffffffffffffffff021916908373ffffffffffffffffffffffffffffffffffffffff160217905550611ae4806100606000396000f3006080604052600436106100f1576000357c0100000000000000000000000000000000000000000000000000000000900463ffffffff16806301ffc9a7146100f657806306fdde031461015a578063095ea7b3146101ea57806318160ddd146102375780631d36e06c1461026257806323b872dd146102cf5780636352211e1461033c57806370a08231146103a95780638462151c146104005780638aa0fdad1461049857806395d89b41146104ff578063a7c5ecf61461058f578063a8bd9c32146106a1578063a9059cbb1461070e578063ce606ee01461075b578063cec21acb146107b2578063e4b50cb814610809575b600080fd5b34801561010257600080fd5b5061014060048036038101908080357bffffffffffffffffffffffffffffffffffffffffffffffffffffffff1916906020019092919050505061091b565b604051808215151515815260200191505060405180910390f35b34801561016657600080fd5b5061016f610bf5565b6040518080602001828103825283818151815260200191508051906020019080838360005b838110156101af578082015181840152602081019050610194565b50505050905090810190601f1680156101dc5780820380516001836020036101000a031916815260200191505b509250505060405180910390f35b3480156101f657600080fd5b50610235600480360381019080803573ffffffffffffffffffffffffffffffffffffffff16906020019092919080359060200190929190505050610c2e565b005b34801561024357600080fd5b5061024c610c51565b6040518082815260200191505060405180910390f35b34801561026e57600080fd5b5061028d60048036038101908080359060200190929190505050610c5e565b604051808273ffffffffffffffffffffffffffffffffffffffff1673ffffffffffffffffffffffffffffffffffffffff16815260200191505060405180910390f35b3480156102db57600080fd5b5061033a600480360381019080803573ffffffffffffffffffffffffffffffffffffffff169060200190929190803573ffffffffffffffffffffffffffffffffffffffff16906020019092919080359060200190929190505050610c91565b005b34801561034857600080fd5b5061036760048036038101908080359060200190929190505050610d42565b604051808273ffffffffffffffffffffffffffffffffffffffff1673ffffffffffffffffffffffffffffffffffffffff16815260200191505060405180910390f35b3480156103b557600080fd5b506103ea600480360381019080803573ffffffffffffffffffffffffffffffffffffffff169060200190929190505050610dbb565b6040518082815260200191505060405180910390f35b34801561040c57600080fd5b50610441600480360381019080803573ffffffffffffffffffffffffffffffffffffffff169060200190929190505050610e04565b6040518080602001828103825283818151815260200191508051906020019060200280838360005b83811015610484578082015181840152602081019050610469565b505050509050019250505060405180910390f35b3480156104a457600080fd5b506104e9600480360381019080803590602001908201803590602001919091929391929390803590602001908201803590602001919091929391929390505050610f51565b6040518082815260200191505060405180910390f35b34801561050b57600080fd5b50610514611027565b6040518080602001828103825283818151815260200191508051906020019080838360005b83811015610554578082015181840152602081019050610539565b50505050905090810190601f1680156105815780820380516001836020036101000a031916815260200191505b509250505060405180910390f35b34801561059b57600080fd5b506105ba60048036038101908080359060200190929190505050611060565b604051808060200180602001838103835285818151815260200191508051906020019080838360005b838110156105fe5780820151818401526020810190506105e3565b50505050905090810190601f16801561062b5780820380516001836020036101000a031916815260200191505b50838103825284818151815260200191508051906020019080838360005b83811015610664578082015181840152602081019050610649565b50505050905090810190601f1680156106915780820380516001836020036101000a031916815260200191505b5094505050505060405180910390f35b3480156106ad57600080fd5b506106cc600480360381019080803590602001909291905050506111c3565b604051808273ffffffffffffffffffffffffffffffffffffffff1673ffffffffffffffffffffffffffffffffffffffff16815260200191505060405180910390f35b34801561071a57600080fd5b50610759600480360381019080803573ffffffffffffffffffffffffffffffffffffffff169060200190929190803590602001909291905050506111f6565b005b34801561076757600080fd5b50610770611291565b604051808273ffffffffffffffffffffffffffffffffffffffff1673ffffffffffffffffffffffffffffffffffffffff16815260200191505060405180910390f35b3480156107be57600080fd5b506107f3600480360381019080803573ffffffffffffffffffffffffffffffffffffffff1690602001909291905050506112b6565b6040518082815260200191505060405180910390f35b34801561081557600080fd5b50610834600480360381019080803590602001909291905050506112ce565b604051808060200180602001838103835285818151815260200191508051906020019080838360005b8381101561087857808201518184015260208101905061085d565b50505050905090810190601f1680156108a55780820380516001836020036101000a031916815260200191505b50838103825284818151815260200191508051906020019080838360005b838110156108de5780820151818401526020810190506108c3565b50505050905090810190601f16801561090b5780820380516001836020036101000a031916815260200191505b5094505050505060405180910390f35b600060405180807f737570706f727473496e74657266616365286279746573342900000000000000815250601901905060405180910390207bffffffffffffffffffffffffffffffffffffffffffffffffffffffff1916827bffffffffffffffffffffffffffffffffffffffffffffffffffffffff19161480610bee575060405180807f746f6b656e734f664f776e6572286164647265737329000000000000000000008152506016019050604051809103902060405180807f7472616e7366657246726f6d28616464726573732c616464726573732c75696e81526020017f74323536290000000000000000000000000000000000000000000000000000008152506025019050604051809103902060405180807f7472616e7366657228616464726573732c75696e7432353629000000000000008152506019019050604051809103902060405180807f617070726f766528616464726573732c75696e743235362900000000000000008152506018019050604051809103902060405180807f6f776e65724f662875696e7432353629000000000000000000000000000000008152506010019050604051809103902060405180807f62616c616e63654f6628616464726573732900000000000000000000000000008152506012019050604051809103902060405180807f746f74616c537570706c79282900000000000000000000000000000000000000815250600d019050604051809103902060405180807f73796d626f6c28290000000000000000000000000000000000000000000000008152506008019050604051809103902060405180807f6e616d65282900000000000000000000000000000000000000000000000000008152506006019050604051809103902018181818181818187bffffffffffffffffffffffffffffffffffffffffffffffffffffffff1916827bffffffffffffffffffffffffffffffffffffffffffffffffffffffff1916145b9050919050565b6040805190810160405280600c81526020017f4772616469656e74436f696e000000000000000000000000000000000000000081525081565b610c38338261145b565b1515610c4357600080fd5b610c4d82826114c7565b5050565b6000600180549050905090565b60026020528060005260406000206000915054906101000a900473ffffffffffffffffffffffffffffffffffffffff1681565b600073ffffffffffffffffffffffffffffffffffffffff168273ffffffffffffffffffffffffffffffffffffffff1614151515610ccd57600080fd5b3073ffffffffffffffffffffffffffffffffffffffff168273ffffffffffffffffffffffffffffffffffffffff1614151515610d0857600080fd5b610d123382611622565b1515610d1d57600080fd5b610d27838261145b565b1515610d3257600080fd5b610d3d83838361168e565b505050565b60006002600083815260200190815260200160002060009054906101000a900473ffffffffffffffffffffffffffffffffffffffff169050600073ffffffffffffffffffffffffffffffffffffffff168173ffffffffffffffffffffffffffffffffffffffff1614151515610db657600080fd5b919050565b6000600360008373ffffffffffffffffffffffffffffffffffffffff1673ffffffffffffffffffffffffffffffffffffffff168152602001908152602001600020549050919050565b6060600060606000806000610e1887610dbb565b94506000851415610e5b576000604051908082528060200260200182016040528015610e535781602001602082028038833980820191505090505b509550610f47565b84604051908082528060200260200182016040528015610e8a5781602001602082028038833980820191505090505b509350610e95610c51565b925060009150600190505b8281111515610f43578673ffffffffffffffffffffffffffffffffffffffff166002600083815260200190815260200160002060009054906101000a900473ffffffffffffffffffffffffffffffffffffffff1673ffffffffffffffffffffffffffffffffffffffff161415610f3657808483815181101515610f1f57fe5b906020019060200201818152505081806001019250505b8080600101915050610ea0565b8395505b5050505050919050565b60008060009054906101000a900473ffffffffffffffffffffffffffffffffffffffff1673ffffffffffffffffffffffffffffffffffffffff163373ffffffffffffffffffffffffffffffffffffffff16141515610fae57600080fd5b61101d3386868080601f01602080910402602001604051908101604052809392919081815260200183838082843782019150505050505085858080601f016020809104026020016040519081016040528093929190818152602001838380828437820191505050505050611890565b9050949350505050565b6040805190810160405280600381526020017f475244000000000000000000000000000000000000000000000000000000000081525081565b60018181548110151561106f57fe5b9060005260206000209060020201600091509050806000018054600181600116156101000203166002900480601f01602080910402602001604051908101604052809291908181526020018280546001816001161561010002031660029004801561111b5780601f106110f05761010080835404028352916020019161111b565b820191906000526020600020905b8154815290600101906020018083116110fe57829003601f168201915b505050505090806001018054600181600116156101000203166002900480601f0160208091040260200160405190810160405280929190818152602001828054600181600116156101000203166002900480156111b95780601f1061118e576101008083540402835291602001916111b9565b820191906000526020600020905b81548152906001019060200180831161119c57829003601f168201915b5050505050905082565b60046020528060005260406000206000915054906101000a900473ffffffffffffffffffffffffffffffffffffffff1681565b600073ffffffffffffffffffffffffffffffffffffffff168273ffffffffffffffffffffffffffffffffffffffff161415151561123257600080fd5b3073ffffffffffffffffffffffffffffffffffffffff168273ffffffffffffffffffffffffffffffffffffffff161415151561126d57600080fd5b611277338261145b565b151561128257600080fd5b61128d33838361168e565b5050565b6000809054906101000a900473ffffffffffffffffffffffffffffffffffffffff1681565b60036020528060005260406000206000915090505481565b6060806112d96119f9565b6001848154811015156112e857fe5b9060005260206000209060020201604080519081016040529081600082018054600181600116156101000203166002900480601f01602080910402602001604051908101604052809291908181526020018280546001816001161561010002031660029004801561139a5780601f1061136f5761010080835404028352916020019161139a565b820191906000526020600020905b81548152906001019060200180831161137d57829003601f168201915b50505050508152602001600182018054600181600116156101000203166002900480601f01602080910402602001604051908101604052809291908181526020018280546001816001161561010002031660029004801561143c5780601f106114115761010080835404028352916020019161143c565b820191906000526020600020905b81548152906001019060200180831161141f57829003601f168201915b5050505050815250509050806000015192508060200151915050915091565b60008273ffffffffffffffffffffffffffffffffffffffff166002600084815260200190815260200160002060009054906101000a900473ffffffffffffffffffffffffffffffffffffffff1673ffffffffffffffffffffffffffffffffffffffff1614905092915050565b816004600083815260200190815260200160002060006101000a81548173ffffffffffffffffffffffffffffffffffffffff021916908373ffffffffffffffffffffffffffffffffffffffff1602179055507f8c5be1e5ebec7d5bd14f71427d1e84f3dd0314c0f7b2291e5b200ac8c7c3b9256002600083815260200190815260200160002060009054906101000a900473ffffffffffffffffffffffffffffffffffffffff166004600084815260200190815260200160002060009054906101000a900473ffffffffffffffffffffffffffffffffffffffff1683604051808473ffffffffffffffffffffffffffffffffffffffff1673ffffffffffffffffffffffffffffffffffffffff1681526020018373ffffffffffffffffffffffffffffffffffffffff1673ffffffffffffffffffffffffffffffffffffffff168152602001828152602001935050505060405180910390a15050565b60008273ffffffffffffffffffffffffffffffffffffffff166004600084815260200190815260200160002060009054906101000a900473ffffffffffffffffffffffffffffffffffffffff1673ffffffffffffffffffffffffffffffffffffffff1614905092915050565b600360008373ffffffffffffffffffffffffffffffffffffffff1673ffffffffffffffffffffffffffffffffffffffff16815260200190815260200160002060008154809291906001019190505550816002600083815260200190815260200160002060006101000a81548173ffffffffffffffffffffffffffffffffffffffff021916908373ffffffffffffffffffffffffffffffffffffffff160217905550600073ffffffffffffffffffffffffffffffffffffffff168373ffffffffffffffffffffffffffffffffffffffff161415156117ec57600360008473ffffffffffffffffffffffffffffffffffffffff1673ffffffffffffffffffffffffffffffffffffffff16815260200190815260200160002060008154809291906001900391905055506004600082815260200190815260200160002060006101000a81549073ffffffffffffffffffffffffffffffffffffffff02191690555b7fddf252ad1be2c89b69c2b068fc378daa952ba7f163c4a11628f55a4df523b3ef838383604051808473ffffffffffffffffffffffffffffffffffffffff1673ffffffffffffffffffffffffffffffffffffffff1681526020018373ffffffffffffffffffffffffffffffffffffffff1673ffffffffffffffffffffffffffffffffffffffff168152602001828152602001935050505060405180910390a1505050565b600061189a6119f9565b6000809054906101000a900473ffffffffffffffffffffffffffffffffffffffff1673ffffffffffffffffffffffffffffffffffffffff168573ffffffffffffffffffffffffffffffffffffffff161415156118f557600080fd5b604080519081016040528085815260200184815250905060018082908060018154018082558091505090600182039060005260206000209060020201600090919290919091506000820151816000019080519060200190611957929190611a13565b506020820151816001019080519060200190611974929190611a13565b5050500391507f0f6798a560793a54c3bcfe86a93cde1e73087d944c0ea20544137d41213968853383604051808373ffffffffffffffffffffffffffffffffffffffff1673ffffffffffffffffffffffffffffffffffffffff1681526020018281526020019250505060405180910390a16119f16000338461168e565b509392505050565b604080519081016040528060608152602001606081525090565b828054600181600116156101000203166002900490600052602060002090601f016020900481019282601f10611a5457805160ff1916838001178555611a82565b82800160010185558215611a82579182015b82811115611a81578251825591602001919060010190611a66565b5b509050611a8f9190611a93565b5090565b611ab591905b80821115611ab1576000816000905550600101611a99565b5090565b905600a165627a7a723058202dfe63c0dc79a52e3d3bb83a60cb9ad7ae7c3bbe761aeed8b7477bac597aad0d0029",
  "source": "pragma solidity ^0.4.23;\n\nimport \"./ERC721.sol\";\n\ncontract GradientCoin is ERC721 {\n    /*** CONSTANTS ***/\n    string public constant name = \"GradientCoin\";\n    string public constant symbol = \"GRD\";\n\n    bytes4 constant InterfaceID_ERC165 = bytes4(keccak256(\"supportsInterface(bytes4)\"));\n    bytes4 constant InterfaceID_ERC721 =\n        bytes4(keccak256(\"name()\")) ^\n        bytes4(keccak256(\"symbol()\")) ^\n        bytes4(keccak256(\"totalSupply()\")) ^\n        bytes4(keccak256(\"balanceOf(address)\")) ^\n        bytes4(keccak256(\"ownerOf(uint256)\")) ^\n        bytes4(keccak256(\"approve(address,uint256)\")) ^\n        bytes4(keccak256(\"transfer(address,uint256)\")) ^\n        bytes4(keccak256(\"transferFrom(address,address,uint256)\")) ^\n        bytes4(keccak256(\"tokensOfOwner(address)\"));\n\n    /*** DATA TYPES ***/\n    struct Gradient {\n        string outer;\n        string inner;\n    }\n\n    /*** STORAGE ***/\n    address public contractOwner;\n    Gradient[] public gradients;\n\n    mapping (uint256 => address) public tokenIndexToOwner;\n    mapping (address => uint256) public ownershipTokenCount;\n    mapping (uint256 => address) public tokenIndexToApproved;\n\n    /*** EVENTS ***/\n    event Mint(address owner, uint256 tokenId);\n\n    /*** CONSTRUCTOR ***/\n    constructor() \n    {\n        contractOwner = msg.sender;\n    }\n\n    /*** INTERNAL FUNCTIONS ***/\n\n    function _owns(address _claimant, uint256 _tokenId) \n        internal \n        view \n        returns (bool) \n    {\n        return tokenIndexToOwner[_tokenId] == _claimant;\n    }\n\n    function _approvedFor(address _claimant, uint256 _tokenId) \n        internal \n        view \n        returns (bool) \n    {\n        return tokenIndexToApproved[_tokenId] == _claimant;\n    }\n\n    function _approve(address _to, uint256 _tokenId) \n        internal \n    {\n        tokenIndexToApproved[_tokenId] = _to;\n        emit Approval(tokenIndexToOwner[_tokenId], tokenIndexToApproved[_tokenId], _tokenId);\n    }\n\n    function _transfer(address _from, address _to, uint256 _tokenId) \n        internal \n    {\n        ownershipTokenCount[_to]++;\n        tokenIndexToOwner[_tokenId] = _to;\n        if (_from != address(0)) {\n            ownershipTokenCount[_from]--;\n            delete tokenIndexToApproved[_tokenId];\n        }\n\n        emit Transfer(_from, _to, _tokenId);\n    }\n\n    function _mint(address _sender, string _outer, string _inner) \n        internal \n        returns (uint256 tokenId) \n    {\n        require(_sender == contractOwner);\n\n        Gradient memory newToken = Gradient({\n            outer: _outer,\n            inner: _inner\n        });\n\n        tokenId = gradients.push(newToken) - 1;\n\n        emit Mint(msg.sender, tokenId);\n\n        _transfer(0, msg.sender, tokenId);\n    }\n\n\n  /*** ERC721 IMPLEMENTATION ***/\n\n    function supportsInterface(bytes4 _interfaceID) \n        external \n        view \n        returns (bool) \n    {\n        return ((_interfaceID == InterfaceID_ERC165) || (_interfaceID == InterfaceID_ERC721));\n    }\n\n    function totalSupply() \n        public \n        view \n        returns (uint256) \n    {\n        return gradients.length;\n    }\n\n    function balanceOf(address _owner) \n        public \n        view \n        returns (uint256) \n    {\n        return ownershipTokenCount[_owner];\n    }\n\n    function ownerOf(uint256 _tokenId) \n        external \n        view \n        returns (address owner) \n    {\n        owner = tokenIndexToOwner[_tokenId];\n        require(owner != address(0));\n    }\n\n    function approve(address _to, uint256 _tokenId) \n        external \n    {\n        require(_owns(msg.sender, _tokenId));\n\n        _approve(_to, _tokenId);\n    }\n\n    function transfer(address _to, uint256 _tokenId) \n        external \n    {\n        require(_to != address(0));\n        require(_to != address(this));\n        require(_owns(msg.sender, _tokenId));\n\n        _transfer(msg.sender, _to, _tokenId);\n    }\n\n    function transferFrom(address _from, address _to, uint256 _tokenId) \n        external \n    {\n        require(_to != address(0));\n        require(_to != address(this));\n        require(_approvedFor(msg.sender, _tokenId));\n        require(_owns(_from, _tokenId));\n\n        _transfer(_from, _to, _tokenId);\n    }\n\n    function tokensOfOwner(address _owner) \n        external \n        view \n        returns (uint256[]) \n    {\n        uint256 balance = balanceOf(_owner);\n\n        if (balance == 0) {\n            return new uint256[](0);\n        } else {\n            uint256[] memory result = new uint256[](balance);\n            uint256 maxTokenId = totalSupply();\n            uint256 idx = 0;\n\n            uint256 tokenId;\n            for (tokenId = 1; tokenId <= maxTokenId; tokenId++) {\n                if (tokenIndexToOwner[tokenId] == _owner) {\n                    result[idx] = tokenId;\n                    idx++;\n                }\n            }\n        }\n\n        return result;\n    }\n\n\n  /*** OTHER EXTERNAL FUNCTIONS ***/\n\n    function mint(string _outer, string _inner) \n        external \n        returns (uint256) \n    {\n        require(msg.sender == contractOwner);\n        return _mint(msg.sender, _outer, _inner);\n    }\n\n    function getToken(uint256 _tokenId) \n        external \n        view \n        returns (string outer, string inner) \n    {\n        Gradient memory gradient = gradients[_tokenId];\n\n        outer = gradient.outer;\n        inner = gradient.inner;\n    }\n}\n\n//// Every ERC721 token contract must implement the following functions\n// contract ERC721 {\n//    // ERC20 compatible functions\n//    function name() constant returns (string name);\n//    function symbol() constant returns (string symbol);\n//    function totalSupply() constant returns (uint256 totalSupply);\n//    function balanceOf(address _owner) constant returns (uint balance);\n//    // Functions that define ownership\n//    function ownerOf(uint256 _tokenId) constant returns (address owner);\n//    function approve(address _to, uint256 _tokenId);\n//    function takeOwnership(uint256 _tokenId);\n//    function transfer(address _to, uint256 _tokenId);\n//    function tokenOfOwnerByIndex(address _owner, uint256 _index) constant returns (uint tokenId);\n//    // Token metadata\n//    function tokenMetadata(uint256 _tokenId) constant returns (string infoUrl);\n//    // Events\n//    event Transfer(address indexed _from, address indexed _to, uint256 _tokenId);\n//    event Approval(address indexed _owner, address indexed _approved, uint256 _tokenId);\n// }",
  "sourcePath": "/Users/nicoleklein/Projects/Blockchain/GradientCoin/contracts/GradientCoin.sol",
  "compiler": {
    "name": "solc",
    "version": "0.4.24+commit.e67f0147.Emscripten.clang"
  },
  "schemaVersion": "2.0.0",
  "updatedAt": "2018-06-01T03:19:20.458Z"
}